:100983002B002D002A002F003D002E005E002500C5
:100993003E003C003E3D003C3D0020002020544CE6
:1009A3002063616C63756C61746F7200202020207A
:1009B3002056322E31003031323334353637383920
:0109C3000033
:1009FB0001380F013500014C00013601013E001C8E
:100A0B00190983098509870989098B098D098F09BB
:100A1B0091099309950997099A099D000001140101
:100B0200C2A2C2A0D2A17580FFD2A22087F2C2A245
:010B120022C0
:0F0B2300120B02C2A0C2A1758001D2A2C2A222EF
:0E0B3200120B02C2A0C2A18F80D2A2C2A222C8
:0E0B4000120B02D2A0C2A18F80D2A2C2A222AA
:070B7600EF2480FF020B32A7
:0D0B1300E53F75F00A84E5F09009B993FF05
:030B2000020B4085
:060AA2008B5D8A5E895F96
:100AA800E4FEAB5DAA5EA95F8E8275830012025ACE
:090AB800FF6006120B400E80E9FC
:010AC1002212
:100AF0007F06120B327F0C120B327F38120B320240
:020B00000B23C5
:0C0B4E00AE07E4FF120B76AF06020B208E
:0C0B5A00AE077F40120B76AF06020B20A6
:080B66007F40120B76020AA287
:080B6E00E4FF120B76020AA25B
:100ADA00E4FF120B76120AA27F40120B76AB5AAAD7
:060AEA005BA95C020AA2F8
:1003C80075B0FE7590FFE590F46057120A7C759041
:1003D800FFE590F460F0AF90EF2421601C24F060FA
:1003E8001D24F8601E24FC601F24FE602014602277
:1003F800243F7021753701801C75370280177537C7
:10040800038012753704800D753705800875370627
:100418008003753707753D01E590F460B47590FF6A
:1004280080F675B0FD7590FFE590F46057120A7C70
:100438007590FFE590F460F0AF90EF2421601C24E4
:10044800F0601D24F8601E24FC601F24FE60201448
:100458006022243F7021753708801C753709801782
:1004680075370A801275370B800D75370C80087543
:10047800370D800375370E753D01E590F460B4754E
:1004880090FF80F675B0FB7590FFE590F460571209
:100498000A7C7590FFE590F460F0AF90EF2421603E
:1004A8001C24F0601D24F8601E24FC601F24FE60DC
:1004B80020146022243F702175370F801C75371077
:1004C80080177537118012753712800D75371380B4
:1004D800087537148003753715753D01E590F4608C
:1004E800B47590FF80F675B0F77590FFE590F460ED
:1004F80057120A7C7590FFE590F460F0AF90EF24F6
:1005080021601C24F0601D24F8601E24FC601F2458
:10051800FE6020146022243F7021753716801C75F8
:10052800371780177537188012753719800D75378A
:100538001A800875371B800375371C753D01E590D7
:10054800F460B47590FF80F675B0EF7590FFE59094
:10055800F46057120A7C7590FFE590F460F0AF9054
:10056800EF2421601C24F0601D24F8601E24FC6028
:100578001F24FE6020146022243F702175371D80DF
:100588001C75371E801775371F8012753720800D30
:1005980075372180087537228003753723753D012B
:0D05A800E590F460B47590FF80F6AF372247
:10074E00E537B42004753F0122E537B41904753F2F
:10075E000222E537B41204753F0322E537B42104B3
:10076E00753F0422E537B41A04753F0522E537B408
:10077E001304753F0622E537B42204753F0722E5C0
:10078E0037B41B04753F0822E537B41404753F09CE
:10079E0022E537B41C04E4F53F22E537B40B04E43C
:1007AE00F53822E537B40C0475380122E537B40D5F
:1007BE000475380222E537B40E0475380322E53786
:1007CE00B4150475350422E537B4230475380522B3
:1007DE00E537B41F0475380622E537B418047538AA
:1007EE000722E537B40304754C0122E537B4230321
:0407FE00753E012221
:0A0AC200EF1FAC0670011E4C600D22
:0D0ACC00755802AD581558ED60EC0080F62D
:010AD90022FA
:040A7C007F0A7E006F
:0E0A8000AA06AB07EB1BAE0270011A4E601304
:100A8E00755711AF571557EF60EC7F017E00120AB4
:030A9E00C280F023
:010AA1002232
:10069400E4F560E51464036009E514640160030291
:1006A400074DE53E64017070E56070097BFF7A09CF
:1006B400798D120AA2AC3FE41201A58F648E638D7A
:1006C400628C61E47F0AFEFDFCAB0BAA0AA909A8AF
:1006D40008120287EC12019BC004C005C006C007C3
:1006E400AC60E41201A5A804A905AA06AB07AF648F
:1006F400AE63AD62AC611200FED003D002D001D073
:100704000012000A1201D98F0B8E0A8D098C08E59C
:100714006075F00AA4F56022E47F0AFEFDFCAB0BD1
:10072400AA0AA909A808120287A804A905AA06AB5F
:1007340007E4FCFDFEEB253FF50BEE3AF50AED3937
:09074400F509EC38F508120B135D
:01074D002289
:080802008F508E4F8D4E8C4D7E
:10080A00755101E4F552755601F555F554F553E560
:10081A0051603FE47F0AFEFDFCAB56AA55A954A8D5
:10082A0053120287AB50AA4FA94EA84DC31202E435
:10083A00401BAF56AE55AD54AC53E47B0AFAF9F8F7
:10084A001202878F568E558D548C5380C2E4F5510F
:10085A0080BD755101E551604FAB56AA55A954A800
:10086A0053AF50AE4FAD4EAC4D12093FE47B0AFA7E
:10087A00F9F812093F74B92BF58274093AF583E441
:10088A0093FF120B20AF56AE55AD54AC53E47B0A1E
:10089A00FAF9F812093F8F568E558D548C53EC4D48
:0808AA004E4F70B1F55180AD15
:0108B2002223
:1005B500E5367018E50F2513F53CE50E3512F53BCC
:1005C500E50D3511F53AE50C3510F539E536B4018B
:1005D50019C3E50F9513F53CE50E9512F53BE50DB1
:1005E5009511F53AE50C9510F539E536B4021BAFD2
:1005F50013AE12AD11AC10AB0FAA0EA90DA80C12BB
:1006050002878F3C8E3B8D3A8C39E536B4031BABA4
:1006150013AA12A911A810AF0FAE0EAD0DAC0C1296
:10062500093F8F3C8E3B8D3A8C39E5366406705E0A
:10063500850F3C850E3B850D3A850C39E47F01FE1F
:10064500FDFCAB13AA12A911A810D31202E4403580
:10065500AF3CAE3BAD3AAC39AB0FAA0EA90DA80C19
:100665001202878F3C8E3B8D3A8C3974FF2513F52A
:1006750013E51234FFF512E51134FFF511E51034D9
:0F068500FFF51080B7E4F50FF50EF50DF50C221B
:1009C400120AF0120B23755AFF755B09755CAF7B35
:1009D400FF7A09799F120ADA7FE87E03120A8012ED
:1009E4000B23120A2C1203C812074EE53D60F612BF
:0709F4000A55E4F53D80F413
:100A2C00120AF0120B23753864E4F53F7514017546
:100A3C003601853C0B853B0A853A09853908F53C1E
:090A4C00F53BF53AF539F53522C8
:100A5500E51464016005E514B40303120B13E514F2
:100A6500B40213E53625E02419F8E6FE08E6AA06E1
:070A7500F97BFF120AA22227
:10000300020245E86480F8E933E83360110460F0E4
:10001300ED33EC337009E8FCE9FDEAFEEBFF220463
:1000230060DED3EB9FEA9EE99DE8C2E78CF0C2F75E
:1000330095F0400CE8CCF8E9CDF9EACEFAEBCFFB2A
:1000430012021085D0F05804700320D5B3E8047071
:10005300075002B2D502024F92D5EC0460F7E4CC0C
:10006300C0E0C398F8603B94186008400DD0E0FBF3
:10007300020227E4FBFAC9FC8028E830E406E4C95D
:10008300FBE4CAFCE830E305E4C9CACBFCE8540747
:100093006010F8C3E913F9EA13FAEB13FBEC13FC52
:1000A300D8F130F52FC3E49CFCEF9BFFEE9AFEEDF5
:1000B30099FDD0E0FBEF4E4D4C701222DB030202A0
:1000C3004CEC2CFCEF33FFEE33FEED33FDED30E76C
:1000D300EB020227EF2BFFEE3AFEED39FDD0E0FBFA
:1000E30050130BBB000302024FED13FDEE13FEEFA3
:0800F30013FFEC13FC020227CD
:1000FB0002024FEC5D046005E859047003020245EF
:10010B00120210580460F6EC4860F2EC7004FDFE2D
:10011B00FF22C860DB2481C85009C39860025006D7
:10012B0002024C9850CAF582E9294B4A7005AB8202
:10013B0002023B75F0007C1A7880C3EF9BEE9AEDC0
:10014B0099400DC3EF9BFFEE9AFEED99FDE842F04F
:10015B00DC23ACF0D0E0FFD0E0FED0E0FDAB8220A2
:10016B00E7101BEB60BAEC2CFCEF33FFEE33FEED2C
:10017B0033FD020227E803F830E705C0F075F00005
:10018B00EF2FFFEE33FEED33FD40B830E7C280AA10
:10019B0075F020800E75F010800575F0087D007EDF
:1001AB00007F003392D530D5031202D6EC334010CA
:1001BB00EF33FFEE33FEED33FDEC33FCD5F0ED22E8
:0E01CB00E5F0247EA2D513CC92E7CDCEFF2224
:1001D900EDD2E7CD33EC3392D524814006E4FFFE1E
:1001E900FDFC22FCE4CFCECDCC24E0501174FF807D
:1001F900EDC3CC13CCCD13CDCE13CECF13CF04701A
:07020900F030D5DE0202D641
:10021000E9D2E7C933E833F892D5EDD2E7CD33EC34
:0702200033FC5002B2D522AD
:10022700EC30E7100FBF000C0EBE00080DBD000438
:100237000BEB6014A2D5EB13FCED92E7FD2274FFE4
:10024700FCFDFEFF22E480F8A2D574FF13FC7D803D
:03025700E480EF51
:030000000208B340
:0C08B300787FE4F6D8FD7581640208FA35
:10025A00BB010CE58229F582E5833AF583E0225059
:10026A0006E92582F8E622BBFE06E92582F8E222A3
:0D027A00E58229F582E5833AF583E49322BD
:10028700E88FF0A4CC8BF0A42CFCE98EF0A42CFC16
:100297008AF0EDA42CFCEA8EF0A4CDA8F08BF0A494
:1002A7002DCC3825F0FDE98FF0A42CCD35F0FCEBF3
:1002B7008EF0A4FEA9F0EB8FF0A4CFC5F02ECD39B8
:0F02C700FEE43CFCEAA42DCE35F0FDE43CFC2225
:10093F00C2D5E830E70FB2D5E4C39BFBE49AFAE4E3
:10094F0099F9E498F8EC30E717B2D512097512034C
:10095F0036E4C39BFBE49AFAE499F9E498F8800330
:10096F0012033630D50DE4C39FFFE49EFEE49DFDD8
:04097F00E49CFC22D6
:0E02D600C3E49FFFE49EFEE49DFDE49CFC2239
:1002E400EB9FF5F0EA9E42F0E99D42F0EC6480C891
:0602F40064809845F02231
:1008BF000209C4E493A3F8E493A34003F68001F282
:1008CF0008DFF48029E493A3F85407240CC8C3333A
:1008DF00C4540F4420C8834004F456800146F6DF09
:1008EF00E4800B01020408102040809009FBE47E95
:1008FF00019360BCA3FF543F30E509541FFEE493FE
:10090F00A360010ECF54C025E060A840B8E493A3C4
:10091F00FAE493A3F8E493A3C8C582C8CAC583CAEF
:10092F00F0A3C8C582C8CAC583CADFE9DEE780BEA7
:010A2B0000CA
:1002FA0075F008758200EF2FFFEE33FECD33CDCCBB
:10030A0033CCC58233C5829BED9AEC99E58298403D
:10031A000CF582EE9BFEED9AFDEC99FC0FD5F0D61A
:10032A00E4CEFBE4CDFAE4CCF9A88222B800C1B944
:10033A000059BA002DEC8BF084CFCECDFCE5F0CB82
:10034A00F97818EF2FFFEE33FEED33FDEC33FCEBBB
:10035A0033FB10D703994004EB99FB0FD8E5E4F976
:10036A00FA227818EF2FFFEE33FEED33FDEC33FC63
:10037A00C933C910D7059BE99A4007EC9BFCE99A57
:10038A00F90FD8E0E4C9FAE4CCFB2275F010EF2F9C
:10039A00FFEE33FEED33FDCC33CCC833C810D7079C
:1003AA009BEC9AE899400AED9BFDEC9AFCE899F8D7
:0E03BA000FD5F0DAE4CDFBE4CCFAE4C8F9226A
:00000001FF
